:04000000C3EF03F057
:100600000000946A956A000E1F6E000E1E6E1EC0DA
:1006100015F01FC016F0000E186E0A0E176E4BEC88
:1006200003F01550020DF350010FD96EDA6ADF5056
:10063000826E000E216E000E206E1EC015F01FC0CF
:1006400016F0000E186E0A0E176E8CEC03F01550A3
:10065000020DF350010FD96EDA6ADF50836E0D0E72
:100660001D6EFC0EE82EFED71D2EFCD7204A212A37
:1006700021BEE3D7215004E1640E205CD8A0DDD771
:100680001E4A1F2A1FBEC3D71F50BDE1640E1E5C49
:10069000D8B0B9D7BCD71A6A18AE06D0176C181ED6
:1006A000D8B0182A010E1A6E16AE06D0156C161E9A
:1006B000D8B0162A010E1A1A000E1C6E000E1B6E00
:1006C00017501810D8B41CD0010E196E04D0D89051
:1006D00017361836192A18AEFAD7D8901B361C369A
:1006E0001750155C18501658D8A005D01750155E35
:1006F0001850165A1B80D89018321732192EEDD781
:100700001A50D8B404D01B6C1C1ED8B01C2A1BC0B5
:1007100015F01CC016F012001A6A16AE06D0156C41
:10072000161ED8B0162A010E1A6E18AE04D0176C19
:10073000181ED8B0182A17501810D8B418D0010EA7
:10074000196E04D0D89017361836192A18AEFAD771
:100750001750155C18501658D8A004D01750155EC5
:100760001850165AD89018321732192EF1D71A503D
:10077000D8B404D0156C161ED8B0162A15C015F0C2
:1007800016C016F01200B00EF66E070EF76E000ED1
:10079000F86E00EE01F010EE14F00900F5CFEEFF58
:1007A000E550E150FAE1216A206A000101EF03F00F
:1007B000C000F900A400B000990092008200F80087
:0407C0008000900025
:020000040030CA
:02000000FF02FD
:00000001FF
