:0400000039EF03F0E1
:100600000000956A94681550020DF350010FD96EE1
:10061000DA6A8250136E146ADE5013181DE1DE5040
:100620001418D8A419D01550020DF350010FD96E2B
:10063000DA6ADF50836E1550020DF350010FD96E48
:10064000DA6A8250136E146ADE50131806E1DE5027
:100650001418D8A402D0EFD7836A154A162A080EB8
:1006600015181610D8A4CFD7000E166E000E156EF2
:10067000CAD79C0EF66E060EF76E000EF86E00EEF0
:1006800001F010EE10F00900F5CFEEFFE550E1505B
:10069000FAE1166A156A000101EF03F00100020099
:0C06A00004000800100020004000800052
:020000040030CA
:02000000FF02FD
:00000001FF
