:040000001FEF03F0FB
:100600000000936A926A34EC03F0010E44EC03F0AC
:10061000000E0E6E000E0D6E09D00D50010FD96E3A
:10062000DA6ADF5054EC03F00D4A0E2A0D50010F28
:10063000D96EDA6ADF50D8B400EF00F0EED7C80EFA
:10064000F66E060EF76E000EF86E00EE01F010EE7C
:100650000CF00900F5CFEEFFE550E150FAE10E6A2B
:100660000D6A000101EF03F0010E44EC03F0380EB7
:1006700044EC03F00C0E44EC03F0800E44EC03F069
:10068000060E44EC03F01200106E10C08AFF899031
:10069000899289841A0E0F6EF80EE82EFED70F2E5F
:1006A000FCD700D089941200106E10C08AFF898098
:1006B000899289841A0E0F6EF80EE82EFED70F2E3F
:1006C000FCD700D08994120068656C6C6F20776F3E
:0406D000726C6400E4
:020000040030CA
:02000000FF02FD
:00000001FF
